{
  "_format": "hh-sol-artifact-1",
  "contractName": "TransactionLogger",
  "sourceName": "contracts/TransactionLogger.sol",
  "abi": [
    {
      "inputs": [],
      "stateMutability": "nonpayable",
      "type": "constructor"
    },
    {
      "anonymous": false,
      "inputs": [
        {
          "indexed": true,
          "internalType": "string",
          "name": "transactionRef",
          "type": "string"
        },
        {
          "indexed": false,
          "internalType": "uint256",
          "name": "timestamp",
          "type": "uint256"
        }
      ],
      "name": "TransactionLogged",
      "type": "event"
    },
    {
      "inputs": [],
      "name": "getTotalLogged",
      "outputs": [
        {
          "internalType": "uint256",
          "name": "",
          "type": "uint256"
        }
      ],
      "stateMutability": "view",
      "type": "function"
    },
    {
      "inputs": [
        {
          "internalType": "string",
          "name": "transactionRef",
          "type": "string"
        },
        {
          "internalType": "uint256",
          "name": "amount",
          "type": "uint256"
        },
        {
          "internalType": "string",
          "name": "fromCurrency",
          "type": "string"
        },
        {
          "internalType": "string",
          "name": "toCurrency",
          "type": "string"
        },
        {
          "internalType": "uint256",
          "name": "exchangeRate",
          "type": "uint256"
        },
        {
          "internalType": "uint256",
          "name": "fees",
          "type": "uint256"
        }
      ],
      "name": "logTransaction",
      "outputs": [],
      "stateMutability": "nonpayable",
      "type": "function"
    },
    {
      "inputs": [
        {
          "internalType": "string",
          "name": "",
          "type": "string"
        }
      ],
      "name": "logs",
      "outputs": [
        {
          "internalType": "string",
          "name": "transactionRef",
          "type": "string"
        },
        {
          "internalType": "uint256",
          "name": "amount",
          "type": "uint256"
        },
        {
          "internalType": "string",
          "name": "fromCurrency",
          "type": "string"
        },
        {
          "internalType": "string",
          "name": "toCurrency",
          "type": "string"
        },
        {
          "internalType": "uint256",
          "name": "exchangeRate",
          "type": "uint256"
        },
        {
          "internalType": "uint256",
          "name": "fees",
          "type": "uint256"
        },
        {
          "internalType": "uint256",
          "name": "timestamp",
          "type": "uint256"
        },
        {
          "internalType": "address",
          "name": "loggedBy",
          "type": "address"
        }
      ],
      "stateMutability": "view",
      "type": "function"
    },
    {
      "inputs": [],
      "name": "owner",
      "outputs": [
        {
          "internalType": "address",
          "name": "",
          "type": "address"
        }
      ],
      "stateMutability": "view",
      "type": "function"
    },
    {
      "inputs": [
        {
          "internalType": "uint256",
          "name": "",
          "type": "uint256"
        }
      ],
      "name": "transactionRefs",
      "outputs": [
        {
          "internalType": "string",
          "name": "",
          "type": "string"
        }
      ],
      "stateMutability": "view",
      "type": "function"
    },
    {
      "inputs": [
        {
          "internalType": "string",
          "name": "transactionRef",
          "type": "string"
        }
      ],
      "name": "verifyTransaction",
      "outputs": [
        {
          "internalType": "bool",
          "name": "exists",
          "type": "bool"
        },
        {
          "components": [
            {
              "internalType": "string",
              "name": "transactionRef",
              "type": "string"
            },
            {
              "internalType": "uint256",
              "name": "amount",
              "type": "uint256"
            },
            {
              "internalType": "string",
              "name": "fromCurrency",
              "type": "string"
            },
            {
              "internalType": "string",
              "name": "toCurrency",
              "type": "string"
            },
            {
              "internalType": "uint256",
              "name": "exchangeRate",
              "type": "uint256"
            },
            {
              "internalType": "uint256",
              "name": "fees",
              "type": "uint256"
            },
            {
              "internalType": "uint256",
              "name": "timestamp",
              "type": "uint256"
            },
            {
              "internalType": "address",
              "name": "loggedBy",
              "type": "address"
            }
          ],
          "internalType": "struct TransactionLogger.TransferLog",
          "name": "log",
          "type": "tuple"
        }
      ],
      "stateMutability": "view",
      "type": "function"
    }
  ],
  "bytecode": "0x6080604052348015600f57600080fd5b5033600260006101000a81548173ffffffffffffffffffffffffffffffffffffffff021916908373ffffffffffffffffffffffffffffffffffffffff160217905550611321806100606000396000f3fe608060405234801561001057600080fd5b50600436106100625760003560e01c806329e15899146100675780636f37ce43146100835780638da5cb5b146100b45780639a0ecd04146100d2578063ca85af2a146100f0578063f855b45314610127575b600080fd5b610081600480360381019061007c9190610acc565b610157565b005b61009d60048036038101906100989190610bad565b610372565b6040516100ab929190610d9e565b60405180910390f35b6100bc6105ec565b6040516100c99190610ddd565b60405180910390f35b6100da610612565b6040516100e79190610e07565b60405180910390f35b61010a60048036038101906101059190610bad565b61061f565b60405161011e989796959493929190610e6c565b60405180910390f35b610141600480360381019061013c9190610eff565b610835565b60405161014e9190610f2c565b60405180910390f35b600080876040516101689190610f8a565b9081526020016040518091039020600001805461018490610fd0565b9050146101c6576040517f08c379a00000000000000000000000000000000000000000000000000000000081526004016101bd9061104d565b60405180910390fd5b6040518061010001604052808781526020018681526020018581526020018481526020018381526020018281526020014281526020013373ffffffffffffffffffffffffffffffffffffffff168152506000876040516102269190610f8a565b908152602001604051809103902060008201518160000190816102499190611219565b506020820151816001015560408201518160020190816102699190611219565b50606082015181600301908161027f9190611219565b506080820151816004015560a0820151816005015560c0820151816006015560e08201518160070160006101000a81548173ffffffffffffffffffffffffffffffffffffffff021916908373ffffffffffffffffffffffffffffffffffffffff16021790555090505060018690806001815401808255809150506001900390600052602060002001600090919091909150908161031c9190611219565b508560405161032b9190610f8a565b60405180910390207fe1335fddbe68952029f587e081d1e21f16411412ccdf864302bfd3170b2ed141426040516103629190610e07565b60405180910390a2505050505050565b600061037c6108e1565b60008360405161038c9190610f8a565b9081526020016040518091039020604051806101000160405290816000820180546103b690610fd0565b80601f01602080910402602001604051908101604052809291908181526020018280546103e290610fd0565b801561042f5780601f106104045761010080835404028352916020019161042f565b820191906000526020600020905b81548152906001019060200180831161041257829003601f168201915b505050505081526020016001820154815260200160028201805461045290610fd0565b80601f016020809104026020016040519081016040528092919081815260200182805461047e90610fd0565b80156104cb5780601f106104a0576101008083540402835291602001916104cb565b820191906000526020600020905b8154815290600101906020018083116104ae57829003601f168201915b505050505081526020016003820180546104e490610fd0565b80601f016020809104026020016040519081016040528092919081815260200182805461051090610fd0565b801561055d5780601f106105325761010080835404028352916020019161055d565b820191906000526020600020905b81548152906001019060200180831161054057829003601f168201915b505050505081526020016004820154815260200160058201548152602001600682015481526020016007820160009054906101000a900473ffffffffffffffffffffffffffffffffffffffff1673ffffffffffffffffffffffffffffffffffffffff1673ffffffffffffffffffffffffffffffffffffffff168152505090506000816000015151119150915091565b600260009054906101000a900473ffffffffffffffffffffffffffffffffffffffff1681565b6000600180549050905090565b60008180516020810182018051848252602083016020850120818352809550505050505060009150905080600001805461065890610fd0565b80601f016020809104026020016040519081016040528092919081815260200182805461068490610fd0565b80156106d15780601f106106a6576101008083540402835291602001916106d1565b820191906000526020600020905b8154815290600101906020018083116106b457829003601f168201915b5050505050908060010154908060020180546106ec90610fd0565b80601f016020809104026020016040519081016040528092919081815260200182805461071890610fd0565b80156107655780601f1061073a57610100808354040283529160200191610765565b820191906000526020600020905b81548152906001019060200180831161074857829003601f168201915b50505050509080600301805461077a90610fd0565b80601f01602080910402602001604051908101604052809291908181526020018280546107a690610fd0565b80156107f35780601f106107c8576101008083540402835291602001916107f3565b820191906000526020600020905b8154815290600101906020018083116107d657829003601f168201915b5050505050908060040154908060050154908060060154908060070160009054906101000a900473ffffffffffffffffffffffffffffffffffffffff16905088565b6001818154811061084557600080fd5b90600052602060002001600091509050805461086090610fd0565b80601f016020809104026020016040519081016040528092919081815260200182805461088c90610fd0565b80156108d95780601f106108ae576101008083540402835291602001916108d9565b820191906000526020600020905b8154815290600101906020018083116108bc57829003601f168201915b505050505081565b60405180610100016040528060608152602001600081526020016060815260200160608152602001600081526020016000815260200160008152602001600073ffffffffffffffffffffffffffffffffffffffff1681525090565b6000604051905090565b600080fd5b600080fd5b600080fd5b600080fd5b6000601f19601f8301169050919050565b7f4e487b7100000000000000000000000000000000000000000000000000000000600052604160045260246000fd5b6109a38261095a565b810181811067ffffffffffffffff821117156109c2576109c161096b565b5b80604052505050565b60006109d561093c565b90506109e1828261099a565b919050565b600067ffffffffffffffff821115610a0157610a0061096b565b5b610a0a8261095a565b9050602081019050919050565b82818337600083830152505050565b6000610a39610a34846109e6565b6109cb565b905082815260208101848484011115610a5557610a54610955565b5b610a60848285610a17565b509392505050565b600082601f830112610a7d57610a7c610950565b5b8135610a8d848260208601610a26565b91505092915050565b6000819050919050565b610aa981610a96565b8114610ab457600080fd5b50565b600081359050610ac681610aa0565b92915050565b60008060008060008060c08789031215610ae957610ae8610946565b5b600087013567ffffffffffffffff811115610b0757610b0661094b565b5b610b1389828a01610a68565b9650506020610b2489828a01610ab7565b955050604087013567ffffffffffffffff811115610b4557610b4461094b565b5b610b5189828a01610a68565b945050606087013567ffffffffffffffff811115610b7257610b7161094b565b5b610b7e89828a01610a68565b9350506080610b8f89828a01610ab7565b92505060a0610ba089828a01610ab7565b9150509295509295509295565b600060208284031215610bc357610bc2610946565b5b600082013567ffffffffffffffff811115610be157610be061094b565b5b610bed84828501610a68565b91505092915050565b60008115159050919050565b610c0b81610bf6565b82525050565b600081519050919050565b600082825260208201905092915050565b60005b83811015610c4b578082015181840152602081019050610c30565b60008484015250505050565b6000610c6282610c11565b610c6c8185610c1c565b9350610c7c818560208601610c2d565b610c858161095a565b840191505092915050565b610c9981610a96565b82525050565b600073ffffffffffffffffffffffffffffffffffffffff82169050919050565b6000610cca82610c9f565b9050919050565b610cda81610cbf565b82525050565b6000610100830160008301518482036000860152610cfe8282610c57565b9150506020830151610d136020860182610c90565b5060408301518482036040860152610d2b8282610c57565b91505060608301518482036060860152610d458282610c57565b9150506080830151610d5a6080860182610c90565b5060a0830151610d6d60a0860182610c90565b5060c0830151610d8060c0860182610c90565b5060e0830151610d9360e0860182610cd1565b508091505092915050565b6000604082019050610db36000830185610c02565b8181036020830152610dc58184610ce0565b90509392505050565b610dd781610cbf565b82525050565b6000602082019050610df26000830184610dce565b92915050565b610e0181610a96565b82525050565b6000602082019050610e1c6000830184610df8565b92915050565b600082825260208201905092915050565b6000610e3e82610c11565b610e488185610e22565b9350610e58818560208601610c2d565b610e618161095a565b840191505092915050565b6000610100820190508181036000830152610e87818b610e33565b9050610e96602083018a610df8565b8181036040830152610ea88189610e33565b90508181036060830152610ebc8188610e33565b9050610ecb6080830187610df8565b610ed860a0830186610df8565b610ee560c0830185610df8565b610ef260e0830184610dce565b9998505050505050505050565b600060208284031215610f1557610f14610946565b5b6000610f2384828501610ab7565b91505092915050565b60006020820190508181036000830152610f468184610e33565b905092915050565b600081905092915050565b6000610f6482610c11565b610f6e8185610f4e565b9350610f7e818560208601610c2d565b80840191505092915050565b6000610f968284610f59565b915081905092915050565b7f4e487b7100000000000000000000000000000000000000000000000000000000600052602260045260246000fd5b60006002820490506001821680610fe857607f821691505b602082108103610ffb57610ffa610fa1565b5b50919050565b7f416c7265616479206c6f67676564000000000000000000000000000000000000600082015250565b6000611037600e83610e22565b915061104282611001565b602082019050919050565b600060208201905081810360008301526110668161102a565b9050919050565b60008190508160005260206000209050919050565b60006020601f8301049050919050565b600082821b905092915050565b6000600883026110cf7fffffffffffffffffffffffffffffffffffffffffffffffffffffffffffffffff82611092565b6110d98683611092565b95508019841693508086168417925050509392505050565b6000819050919050565b600061111661111161110c84610a96565b6110f1565b610a96565b9050919050565b6000819050919050565b611130836110fb565b61114461113c8261111d565b84845461109f565b825550505050565b600090565b61115961114c565b611164818484611127565b505050565b5b818110156111885761117d600082611151565b60018101905061116a565b5050565b601f8211156111cd5761119e8161106d565b6111a784611082565b810160208510156111b6578190505b6111ca6111c285611082565b830182611169565b50505b505050565b600082821c905092915050565b60006111f0600019846008026111d2565b1980831691505092915050565b600061120983836111df565b9150826002028217905092915050565b61122282610c11565b67ffffffffffffffff81111561123b5761123a61096b565b5b6112458254610fd0565b61125082828561118c565b600060209050601f8311600181146112835760008415611271578287015190505b61127b85826111fd565b8655506112e3565b601f1984166112918661106d565b60005b828110156112b957848901518255600182019150602085019450602081019050611294565b868310156112d657848901516112d2601f8916826111df565b8355505b6001600288020188555050505b50505050505056fea26469706673582212207dc86cb48543df65b06ce84b1aa657eed0f04d8d1fb59deb94c67b16dee26a2a64736f6c634300081c0033",
  "linkReferences": {},
  "deployedLinkReferences": {}
}